:1000000046C0000092C0000090C000008EC00000FA
:100010008CC000008AC0000088C0000086C00000BC
:1000200084C0000082C0000080C000007EC00000CC
:1000300027C100007AC0000078C0000076C0000030
:1000400074C0000072C0000070C000006EC00000EC
:100050006CC000006AC0000068C0000066C00000FC
:1000600064C0000062C0000060C000005EC000000C
:100070005CC000005AC0000058C0000056C000001C
:1000800054C0000052C0000050C000004F011124B5
:100090001FBECFEFD0E1DEBFCDBF1CBE9FEF9BBB2D
:1000A0001ABA80EF87BB88BB95BB14BA8FE08093E8
:1000B0006100809362008FE180936500109264007C
:1000C00086E080936D0080E880936C0085BF1FBC44
:1000D00088E08EBD88E09DE39BBD8ABD87B78061C7
:1000E00087BF8EB585608EBD11E0A0E0B1E0E0EE87
:1000F000F2E000E00BBF02C007900D92A030B10704
:10010000D9F711E0A0E0B1E001C01D92A830B1071D
:10011000E1F710E0CEE8D0E003C02297FE01DAD08C
:10012000CC38D107D1F7CFD0D9C06ACF98B39F7060
:10013000862F8058807F890F88BBE2E6F0E08081BF
:10014000807F6F70860F808308950F931F93DF93D6
:10015000CF930F92CDB7DEB78C01E8DFD8011396AD
:10016000ED91FC91149780818983D80115968C912B
:1001700015978823C1F315961C92F0CFFF920F9329
:100180001F93DF93CF9300D00F92CDB7DEB78C01D2
:10019000F62E80E090E89B838A83C80164E0C6DF86
:1001A000D8011196ED91FC91129785E5808345E089
:1001B00054E0D8011396ED91FC91149780818983C6
:1001C00015968C9115978823A1F315961C92415092
:1001D00088B388BB8091620085278093620060E0CD
:1001E00020E030E018C09F2D920F9327EA81FB8119
:1001F000E20FF31F9083EA81FB81E20FF31F8081FE
:1002000098136160D8011396ED91FC911497808149
:1002100089832F5F3F4F37FFE6CF20E030E013C0E8
:10022000EA81FB81E20FF31F90818F2D820F8327DC
:1002300089136260D8011396ED91FC911497808127
:1002400089832F5F3F4F37FFEBCF442309F0B1CFB6
:10025000D8011196ED91FC9112971082662311F44A
:1002600080E003C0C80171DF81E00F900F900F9014
:10027000CF91DF911F910F91FF90089560E07ECFA5
:100280001F920F920FB60F9211248F9381E08093EB
:1002900005018F910F900FBE0F901F90189580E071
:1002A00090E7909302018093010180E090E39093A6
:1002B00004018093030181E08093060110920701FD
:1002C000109205010895789480E091E0D7DFFCCF8B
:1002D000EE0FFF1F0590F491E02D0994F894FFCFE5
:00000001FF
