:10000000C6C0000014C1000012C1000010C10000F1
:100010000EC100000CC100000AC1000008C10000B0
:1000200006C1000004C1000002C1000000C10000C0
:10003000E9C40000FCC00000FAC00000F8C00000E5
:10004000F6C00000F4C00000F2C00000F0C00000E4
:10005000EEC00000ECC00000EAC00000E8C00000F4
:10006000E6C00000E4C00000E2C00000E0C0000004
:10007000DEC00000DCC00000DAC00000D8C0000014
:10008000D6C00000D4C00000D2C00000005EBCE2B8
:10009000613FDD83C29C7E20A3FD1F419DC3217F64
:1000A000FCA2401E5F01E3BD3E6082DC237D9FC158
:1000B000421CFEA0E1BF5D0380DE3C62BEE0025C4C
:1000C000DF81633D7C22C09E1D43A1FF4618FAA438
:1000D00027799BC584DA3866E5BB5907DB85673924
:1000E000BAE406581947A5FB7826C49A653BD98718
:1000F000045AB8E6A7F91B45C6987A24F8A6441A0C
:1001000099C7257B3A6486D85B05E7B98CD2306EF7
:10011000EDB3510F4E10F2AC2F7193CD114FADF3E3
:10012000702ECC92D38D6F31B2EC0E50AFF1134DD7
:10013000CE90722C6D33D18F0C52B0EE326C8ED0CB
:10014000530DEFB1F0AE4C1291CF2D73CA947628B7
:10015000ABF517490856B4EA6937D58B5709EBB5A3
:1001600036688AD495CB2977F4AA4816E9B7550B97
:1001700088D6346A2B7597C94A14F6A8742AC8968B
:10018000154BA9F7B6E80A54D7896B351105112428
:100190001FBECFEFD0E1DEBFCDBF1CBE1ABA8FEFBE
:1001A0008BBB17BA18BA14BA85BB11BA12BA12B8F7
:1001B00013B810926100109262008FE18093650085
:1001C0001092640086E080936D0080E880936C005C
:1001D00085BF1FBC88E08EBD88E09DE39BBD8ABDC6
:1001E00087B7806187BF8EB585608EBD11E0A0E0C6
:1001F000B1E0E8EBFAE000E00BBF02C007900D921F
:10020000AA34B107D9F711E0AAE4B1E001C01D9208
:10021000A235B107E1F711E0CEE8D1E003C02297A3
:10022000FE0144D4CC38D107D1F712D443C4E8CE70
:10023000CF93DF93C0E0D1E041E050E0A881B981E5
:10024000FD0182919A010A8002C0220F331F0A9495
:10025000E2F7822B80838C91822B8C93249681E011
:10026000C032D80759F7DF91CF910895CF93DF932C
:10027000A0E0B1E040E050E070E0C1E0D0E0CB01B0
:10028000042E02C0959587950A94E2F780FF0FC06F
:10029000ED91FC9111972081CE0112960C9012974E
:1002A00002C0880F991F0A94E2F7282720834F5F26
:1002B0005F4F14964830510511F7DF91CF910895A3
:1002C00070E0FB01EE0FFF1FEE0FFF1FE050FF4F2E
:1002D00083810190F081E02DDB01AA0FBB1F8823F1
:1002E00089F02081AA0FBB1FAE5FBE4F81E090E076
:1002F0000C9002C0880F991F0A94E2F78095822320
:10030000808308952081AA0FBB1FAE5FBE4F81E09E
:1003100090E00C9002C0880F991F0A94E2F7282BF6
:100320002083089570E0FB01EE0FFF1FEE0FFF1F0B
:10033000E050FF4F83810190F081E02DDB01AA0F97
:10034000BB1F882381F02081AA0FBB1FAE5FBE4F69
:1003500081E090E00C9002C0880F991F0A94E2F7A8
:10036000282B208308952081AA0FBB1FAE5FBE4FAC
:1003700081E090E00C9002C0880F991F0A94E2F788
:100380008095822380830895EF92FF920F931F93AD
:10039000CF93DF938C01C0E0D0E0E62EFF24C701AD
:1003A0000C2E02C0959587950A94E2F780FF04C051
:1003B000C8016C2F85DF03C0C8016C2FB3DF219605
:1003C000C830D10561F7DF91CF911F910F91FF9058
:1003D000EF900895CF93DF93EC018E8190E09C0124
:1003E000220F331F280F391F220F331FF901EE5D33
:1003F000FE4F40815181D90140FF12C0FA01F595AD
:10040000E795EC0FFD1FA05EBE4F0190F081E02D3F
:100410008D919C91E80FF91F0190F081E02D04C0AF
:10042000A05EBE4FED91FC9155954795CE01840F8E
:10043000951F60E009952E8130E0F901EE0FFF1F56
:10044000E20FF31FEE0FFF1FE05EFE4FE80FF11DFE
:1004500084818E83DF91CF9108950F931F93DF9353
:10046000CF930F92CDB7DEB78C018EDF95E0D80128
:100470001396ED91FC91149780818983D80115968C
:100480008C9115978823C1F3992321F015961C921E
:100490009150EDCF80E00F90CF91DF911F910F91A0
:1004A00008950F931F93DF93CF930F92CDB7DEB7CD
:1004B0008C016ADF95E0D8011396ED91FC911497B9
:1004C00080818983D80115968C9115978823C1F373
:1004D000992321F015961C929150EDCF80E00F905A
:1004E000CF91DF911F910F910895AF92BF92CF925C
:1004F000DF92EF92FF920F931F93DF93CF930F92B0
:10050000CDB7DEB78C015C018FE0E82EF12CB1E0B5
:10051000CB2ED12CD8011396ED91FC9114978081AC
:100520008983D80115968C918823C9F3BFEFEB1608
:10053000BFEFFB0691F0F8011582C70168E070E09B
:100540008CD2B60102C0660F771F8A95E2F7C5010B
:100550001BDF0894E108F108DDCF80E00F90CF9118
:10056000DF911F910F91FF90EF90DF90CF90BF90A0
:10057000AF900895AF92BF92CF92DF92EF92FF9229
:100580000F931F93DF93CF930F92CDB7DEB78C01FC
:10059000B82EE12E66E0F8DE30E1F32E24E0A22E44
:1005A00091E0C92ED12CD8011396ED91FC911497AE
:1005B00080818983D80115968C9115978823C1F382
:1005C000FF2009F43DC015961C92FA948B2D9E2DA8
:1005D00066E04CDED8011196ED91FC911297A58250
:1005E0001196ED91FC9112978581816185832F2D64
:1005F00030E0F0FE07C01196ED91FC9112978581D5
:1006000082608583D8011196ED91FC911297C90102
:1006100087709070A60102C0440F551F8A95E2F7BB
:1006200044831196ED91FC9112972F703070C601A2
:1006300002C0880F991F2A95E2F793838283B3CF74
:1006400080E00F90CF91DF911F910F91FF90EF907D
:10065000DF90CF90BF90AF900895CF92DF92EF924E
:10066000FF920F931F93DF93CF9300D00F92CDB7DC
:10067000DEB78C0180E090E39B838A836801C80128
:1006800065E082DE45E0E42EFF24D8011396ED916B
:10069000FC91149780818983D80115968C911597C8
:1006A0008823C1F3EE2009F443C015961C92EA9406
:1006B000C60165E0DBDDEE2D20E030E0E227F0E072
:1006C000E457FF4F9491EA81FB81E20FF31F90837F
:1006D000EA81FB81E20FF31F8081981711F0B1E0EE
:1006E000FB2AF801A381B4818C9189832F5F3F4F4E
:1006F000E92FF8E020303F0709F7EE2D20E030E049
:10070000E227F0E0E457FF4F9491EA81FB81E20F8A
:10071000F31F8081981711F082E0F82A8C91898369
:100720002F5F3F4FE92FF8E020303F0749F7ADCF6B
:10073000FF2011F480E004C0C8016F2D8EDE81E03F
:100740000F900F900F90CF91DF911F910F91FF901D
:10075000EF90DF90CF900895DF92EF92FF920F938A
:100760001F93DF93CF9300D00F92CDB7DEB78C01EC
:1007700080E090E89B838A83D02EE12EC80164E05C
:1007800003DED8011196ED91FC91129785E58083E7
:1007900055E0F52ED8011396ED91FC9114978081C8
:1007A0008983D80115968C9115978823C1F3FF2072
:1007B00041F015961C92FA948D2D9E2D64E056DD25
:1007C000E9CFD8011196ED91FC911297108280E04B
:1007D0000F900F900F90CF91DF911F910F91FF908D
:1007E000EF90DF900895DF92EF92FF920F931F93A7
:1007F000DF93CF9300D0CDB7DEB78C011982D82E0E
:10080000E12E63E0C1DDD8011196ED91FC911297C4
:1008100084E0858364E0F62ED8011396ED91FC9177
:10082000149780818A83D80115968C911597882317
:10083000C1F3FF2041F015961C92FA948D2D9E2D48
:1008400063E014DDE9CFD8011196ED91FC91129788
:1008500085818B7F858380E00F900F90CF91DF9112
:100860001F910F91FF90EF90DF9008957F928F92EC
:100870009F92AF92BF92CF92DF92EF92FF920F932F
:100880001F93DF93CF9300D0CDB7DEB78C011982D1
:100890006C0162E079DDB4E0EB2EFF24ABE07A2E50
:1008A000F6E18F2EECE29E2E78E5A72EBB24BA94BB
:1008B000D8011396ED91FC91149780818A83D80119
:1008C00015968C9115978823C1F3EE2009F482C008
:1008D00015961C92C60162E0C9DCD8011196ED9113
:1008E000FC91129790E08181898389818F3F11F07B
:1008F000B1E0FB2A9F5F9830B1F791E020E030E053
:10090000D8011196ED91FC91129795831196ED9176
:10091000FC911297858189838981891711F0B2E052
:10092000FB2A990F2F5F3F4F2830310549F791E09F
:1009300020E030E0D8011196ED91FC911297908360
:10094000808189838981891711F0B4E0FB2A990F8E
:100950002F5F3F4F2830310569F77082D80111961B
:10096000ED91FC91129784821196ED91FC91129772
:1009700095821196ED91FC911297A7821196ED91B7
:10098000FC911297B0861196ED91FC91129780819F
:100990008B3011F0B8E0FB2A8481863111F088E0B9
:1009A000F82A1482D8011196ED91FC911297858155
:1009B0008C3211F0B8E0FB2A1582D8011196ED9126
:1009C000FC91129780858F3F11F0B8E0FB2AEA94E2
:1009D00010866ECFFF2011F480E004C0C8016F2D97
:1009E0003CDD81E00F900F90CF91DF911F910F912F
:1009F000FF90EF90DF90CF90BF90AF909F908F903F
:100A00007F9008951F920F920FB60F9211248F932B
:100A100081E080934F018F910F900FBE0F901F9038
:100A200018958AE491E004DC80E090E790934C0113
:100A300080934B0180E090E390934E0180934D01B1
:100A400081E0809350011092510110924F0108955E
:100A500078948AE491E0BEDCFCCF97FB092E072650
:100A60000AD077FD04D00CD006D000201AF470957F
:100A700061957F4F0895F6F7909581959F4F089562
:100A8000AA1BBB1B51E107C0AA1FBB1FA617B707B4
:100A900010F0A61BB70B881F991F5A95A9F78095D0
:100AA0009095BC01CD010895EE0FFF1F0590F491C4
:080AB000E02D0994F894FFCF3A
:100AB8003800070038000600380005003800040038
:100AC8002300050023000400230003003200000077
:100AD8005102000001017502000002013604000005
:100AE8000302F30300000403AC03000005042D0314
:0A0AF80000000605BA020000060621
:00000001FF
