:10000000C6C0000012C1000010C100000EC10000F7
:100010000CC100000AC1000008C1000006C10000B8
:1000200004C1000002C1000000C10000FEC00000C9
:1000300069C40000FAC00000F8C00000F6C000006B
:10004000F4C00000F2C00000F0C00000EEC00000EC
:10005000ECC00000EAC00000E8C00000E6C00000FC
:10006000E4C00000E2C00000E0C00000DEC000000C
:10007000DCC00000DAC00000D8C00000D6C000001C
:10008000D4C00000D2C00000D0C00000005EBCE2BE
:10009000613FDD83C29C7E20A3FD1F419DC3217F64
:1000A000FCA2401E5F01E3BD3E6082DC237D9FC158
:1000B000421CFEA0E1BF5D0380DE3C62BEE0025C4C
:1000C000DF81633D7C22C09E1D43A1FF4618FAA438
:1000D00027799BC584DA3866E5BB5907DB85673924
:1000E000BAE406581947A5FB7826C49A653BD98718
:1000F000045AB8E6A7F91B45C6987A24F8A6441A0C
:1001000099C7257B3A6486D85B05E7B98CD2306EF7
:10011000EDB3510F4E10F2AC2F7193CD114FADF3E3
:10012000702ECC92D38D6F31B2EC0E50AFF1134DD7
:10013000CE90722C6D33D18F0C52B0EE326C8ED0CB
:10014000530DEFB1F0AE4C1291CF2D73CA947628B7
:10015000ABF517490856B4EA6937D58B5709EBB5A3
:1001600036688AD495CB2977F4AA4816E9B7550B97
:1001700088D6346A2B7597C94A14F6A8742AC8968B
:10018000154BA9F7B6E80A54D7896B3591041124A9
:100190001FBECFEFD0E1DEBFCDBF1CBE9FEF9BBB2C
:1001A0001ABA80EF87BB88BB95BB14BA8FE08093E7
:1001B0006100809362008FE180936500109264007B
:1001C00086E080936D0080E880936C0085BF1FBC43
:1001D00088E08EBD88E09DE39BBD8ABD87B78061C6
:1001E00087BF8EB585608EBD11E0A0E0B1E0E4E68A
:1001F000F9E000E00BBF02C007900D92AA32B107F0
:10020000D9F711E0AAE2B1E001C01D92A233B10713
:10021000E1F711E0CEE8D1E003C02297FE019CD3C4
:10022000CC38D107D1F791D39BC3EACE98B39F7056
:10023000862F8058807F890F88BBE2E6F0E08081BE
:10024000807F6F70860F80830895CF93DF93EC01DA
:100250008E8190E09C01220F331F280F391F220F3F
:10026000331FF901EE5FFE4F40815181D90140FFFC
:1002700012C0FA01F595E795EC0FFD1FA050BF4F96
:100280000190F081E02D8D919C91E80FF91F019074
:10029000F081E02D04C0A050BF4FED91FC91559529
:1002A0004795CE01840F951F60E009952E8130E0BF
:1002B000F901EE0FFF1FE20FF31FEE0FFF1FE050DB
:1002C000FF4FE80FF11D84818E83DF91CF91089558
:1002D000BF92CF92DF92EF92FF920F931F93DF9323
:1002E000CF930F92CDB7DEB78C01B82EE12E80E10F
:1002F000F82EB1E0CB2ED12CD8011396ED91FC91C4
:1003000014978081898315968C9115978823A1F382
:1003100015961C92FA946F2D6770F60102C0EE0FCD
:10032000FF1F6A95E2F7BF018B2D9E2D7FDFFF2017
:1003300019F780E00F90CF91DF911F910F91FF90FF
:10034000EF90DF90CF90BF9008950F931F93DF93AE
:10035000CF930F92CDB7DEB78C0168DF95E0D8015F
:100360001396ED91FC9114978081898315968C9159
:1003700015978823A1F315961C92915081F780E080
:100380000F90CF91DF911F910F910895FF920F93DE
:100390001F93DF93CF930F92CDB7DEB78C0166E04A
:1003A00045DF40E196E0F92E54E061E070E0D801CD
:1003B00013968D919C911497FC01808189831596E9
:1003C0008C911597882399F315961C921597415097
:1003D00088B388BB809162008F258093620011965C
:1003E0008D919C911297DC0115965C93D801119622
:1003F000ED91FC911297858181618583242F30E0F6
:1004000040FF07C01196ED91FC91129785818260A3
:100410008583D8011196ED91FC911297C9018770DF
:100420009070DB0102C0AA0FBB1F8A95E2F7A4837C
:10043000D8011196ED91FC9112972F703070CB017D
:1004400002C0880F991F2A95E2F793838283442381
:1004500009F0ADCF80E00F90CF91DF911F910F9108
:10046000FF9008950F931F93DF93CF930F92CDB713
:10047000DEB78C01DBDE95E0D8011396ED91FC919F
:1004800014978081898315968C9115978823A1F301
:1004900015961C92915081F780E00F90CF91DF91DB
:1004A0001F910F9108950F931F93DF93CF9300D067
:1004B0000F92CDB7DEB78C0180E090E39B838A83F7
:1004C000C80165E0B3DE45E060E055E0D801139671
:1004D000ED91FC9114978081898315968C911597E5
:1004E0008823A1F315961C92415088B388BB809154
:1004F0006200852780936200E42F20E030E0E2274D
:10050000F0E0E457FF4F9491EA81FB81E20FF31F83
:100510009083EA81FB81E20FF31F80819813616071
:10052000F801A381B4818C9189832F5F3F4FE92F1C
:10053000F8E020303F0719F7E42F20E030E0E22711
:10054000F0E0E457FF4F9491EA81FB81E20FF31F43
:100550008081981362608C9189832F5F3F4FE92FD0
:1005600088E02030380759F7442309F0AFCF6623DD
:1005700011F480E003C0C80175DF81E00F900F9097
:100580000F90CF91DF911F910F9108950F931F93BB
:10059000DF93CF9300D00F92CDB7DEB78C0180E010
:1005A00090E89B838A83C80164E040DED8011196FD
:1005B000ED91FC91129785E5808345E060E054E081
:1005C000D8011396ED91FC9114978081898315963B
:1005D0008C9115978823A1F315961C92415088B3EE
:1005E00088BB80916200852780936200E42F20E021
:1005F00030E01BC0E227F0E0E457FF4F9491EA811E
:10060000FB81E20FF31F9083EA81FB81E20FF31F6E
:10061000808198136160D8011396ED91FC91149735
:10062000808189832F5F3F4FE92F37FFE3CFE42F8E
:1006300020E030E016C0E227F0E0E457FF4F94914D
:10064000EA81FB81E20FF31F808198136260D80179
:100650001396ED91FC911497808189832F5F3F4F12
:10066000E92F37FFE8CF442309F0AACFD80111962C
:10067000ED91FC9112971082662311F480E003C083
:10068000C801F0DE81E00F900F900F90CF91DF91C5
:100690001F910F910895DF92EF92FF920F931F9396
:1006A000DF93CF9300D0CDB7DEB78C01198263E022
:1006B000BDDDD8011196ED91FC91129784E0858300
:1006C000B4E0A0E0F3E0DF2EE5E3EE2E75EDF72ECB
:1006D000F80183819481FC0180818A83F8018581FE
:1006E0008823B1F31582B15088B388BB8091620032
:1006F0008D258093620070E0F80181819281FC0178
:100700007783F80121813281F90187818983898189
:100710008713A1608E2D8A95F1F7F901868189836F
:100720006981607F49815981898129814170440FA4
:10073000440F440F5270550F450F460F90E08470E0
:10074000907095958795480F30E02870307053E091
:10075000359527955A95E1F7420F4713A2608F2DE3
:100760008A95F1F77F5F7F3F39F6BB2309F0B0CF61
:10077000F80121813281F90185818B7F8583AA234C
:1007800011F480E004C0C8016A2F6CDE81E00F9094
:100790000F90CF91DF911F910F91FF90EF90DF901D
:1007A0000895CF92DF92EF92FF920F931F93DF9302
:1007B000CF9300D0CDB7DEB78C01198262E036DD71
:1007C00044E060E0B2E0EB2EABE0FA2EB6E1ACE242
:1007D00078E55FEFF80183819481FC0180818A8351
:1007E000F80185818823B1F31582415088B388BB15
:1007F000809162008E25809362002181328190E099
:10080000F9018181898389818F3F09F061609F5F50
:100810009830B1F791E020E030E0F801C180D2805B
:10082000F6019583F801C180D280F6018581898324
:10083000898189136260990F2F5F3F4F28303105FE
:1008400061F791E020E030E0F801C180D280F6014C
:10085000908380818983898189136460990F2F5FD8
:100860003F4F2830310581F7F601F082F801818190
:100870009281FC01B483F80181819281FC01A583FE
:10088000F80181819281FC017783F8018181928155
:10089000FC015087F80121813281F90180818B3080
:1008A00009F06860F9018481863109F06860F90116
:1008B0001482F80121813281F90185818C3209F09D
:1008C0006860F9011582F80121813281F901808582
:1008D0008F3F09F06860F9011086442309F07ACF50
:1008E000662311F480E003C0C801BCDD81E00F90F5
:1008F0000F90CF91DF911F910F91FF90EF90DF90BC
:10090000CF9008951F920F920FB60F9211248F93DC
:1009100081E080932F018F910F900FBE0F901F9059
:10092000189580E090E790932C0180932B0180E054
:1009300090E390932E0180932D0181E0809330010C
:100940001092310110922F01089578948AE291E07B
:100950007CDCFCCFEE0FFF1F0590F491E02D099495
:04096000F894FFCF39
:10096400A50100000101680100000201D10300009B
:1009740003024B0300000403C602000005045302F3
:0A09840000000605C601000006068B
:00000001FF
