:100000000C9447000C9498000C9498000C94980061
:100010000C9498000C9498000C9498000C94980000
:100020000C9498000C9498000C9498000C949800F0
:100030000C9498030C9498000C9498000C949800DD
:100040000C9498000C9498000C9498000C949800D0
:100050000C9498000C9498000C9498000C949800C0
:100060000C9498000C9498000C9498000C949800B0
:100070000C9498000C9498000C9498000C949800A0
:100080000C9498000C9498000C949800A7031124E9
:100090001FBECFEFD0E1DEBFCDBF1CBE9FEF9BBB2D
:1000A0001ABA80EF87BB88BB95BB14BA8FE08093E8
:1000B0006100809362008FE180936500109264007C
:1000C00086E080936D0080E880936C0085BF1FBC44
:1000D00088E08EBD88E09DE39BBD8ABD87B78061C7
:1000E00087BF8EB585608EBD11E0A0E0B1E0E2E98A
:1000F000F7E000E00BBF02C007900D92A432B107F9
:10010000D9F711E0A4E2B1E001C01D92AC32B10711
:10011000E1F710E0CEE8D0E004C02297FE010E9493
:10012000C303CC38D107C9F70E94BB030C94C703A3
:100130000C94000098B39F70862F8058807F890FA1
:1001400088BBE2E6F0E08081807F6F70860F80835D
:100150000895CF93DF93EC018E8190E09C01220FF4
:10016000331F280F391F220F331FF901EE5FFE4F97
:1001700040815181D90140FF12C0FA01F595E79500
:10018000EC0FFD1FA050BF4F0190F081E02D8D912D
:100190009C91E80FF91F0190F081E02D04C0A05060
:1001A000BF4FED91FC9155954795CE01840F951F5A
:1001B00060E009952E8130E0F901EE0FFF1FE20F9C
:1001C000F31FEE0FFF1FE050FF4FE80FF11D84817A
:1001D0008E83DF91CF910895BF92CF92DF92EF92FD
:1001E000FF920F931F93DF93CF930F92CDB7DEB79C
:1001F0008C01B82EE12E80E1F82EB1E0CB2ED12C6F
:10020000D8011396ED91FC911497808189831596FE
:100210008C9115978823A1F315961C92FA946F2D53
:100220006770F60102C0EE0FFF1F6A95E2F7BF018B
:100230008B2D9E2D0E949A00FF2011F780E00F90D9
:10024000CF91DF911F910F91FF90EF90DF90CF90B2
:10025000BF9008950F931F93DF93CF930F92CDB765
:10026000DEB78C010E949A0095E0D8011396ED91BB
:10027000FC9114978081898315968C91159788231A
:10028000A1F315961C92915081F780E00F90CF91C9
:10029000DF911F910F910895FF920F931F93DF93AA
:1002A000CF930F92CDB7DEB78C0165E00E949A0024
:1002B00040E195E0F92E54E061E070E0D80113963A
:1002C0008D919C911497FC018081898315968C9166
:1002D0001597882399F315961C921597415088B36A
:1002E00088BB809162008F258093620011968D916A
:1002F0009C911297DC0115965C93D8011196ED91B3
:10030000FC911297858181618583242F30E040FF25
:1003100007C01196ED91FC911297858182608583CB
:10032000D8011196ED91FC911297C90187709070D8
:10033000DB0102C0AA0FBB1F8A95E2F7A483D80194
:100340001196ED91FC9112972F703070CB0102C085
:10035000880F991F2A95E2F793838283442309F03B
:10036000ADCF80E00F90CF91DF911F910F91FF9063
:1003700008950F931F93DF93CF930F92CDB7DEB7FE
:100380008C010E949A0095E0D8011396ED91FC91A2
:1003900014978081898315968C9115978823A1F3F2
:1003A00015961C92915081F780E00F90CF91DF91CC
:1003B0001F910F910895FF920F931F93DF93CF9397
:1003C00000D00F92CDB7DEB78C01F62E80E090E81A
:1003D0009B838A83C80164E00E949A00D801119629
:1003E000ED91FC91129785E5808345E054E0D801BA
:1003F0001396ED91FC9114978081898315968C91C9
:1004000015978823A1F315961C92415088B388BB99
:100410008091620085278093620020E030E060E0F8
:1004200018C09F2D920F9327EA81FB81E20FF31FE3
:100430009083EA81FB81E20FF31F80819813616052
:10044000D8011396ED91FC911497808189832F5FD9
:100450003F4F37FFE6CF20E030E013C0EA81FB8159
:10046000E20FF31F90818F2D820F83278913626023
:10047000D8011396ED91FC911497808189832F5FA9
:100480003F4F37FFEBCF442309F0B1CFD80111968E
:10049000ED91FC9112971082662311F480E004C064
:1004A000C8010E94B90181E00F900F900F90CF9189
:1004B000DF911F910F91FF900895DF92EF92FF92CD
:1004C0000F931F93DF93CF9300D0CDB7DEB78C018E
:1004D000198263E00E949A00D8011196ED91FC9177
:1004E000129784E08583B4E0A0E0F3E0DF2EE5E33B
:1004F000EE2E75EDF72EF80183819481FC01808149
:100500008A83F80185818823B1F31582B15088B3BD
:1005100088BB809162008D258093620070E0F801B5
:1005200081819281FC017783F80121813281F90177
:100530008781898389818713A1608E2D8A95F1F740
:10054000F901868189836981607F49815981898127
:1005500029814170440F440F440F5270550F450FCD
:10056000460F90E08470907095958795480F30E025
:100570002870307053E0359527955A95E1F7420F72
:100580004713A2608F2D8A95F1F77F5F7F3F39F681
:10059000BB2309F0B0CFF80121813281F9018581B7
:1005A0008B7F8583AA2311F480E005C0C8016A2FE0
:1005B0000E94B90181E00F900F90CF91DF911F91C0
:1005C0000F91FF90EF90DF900895CF92DF92EF921E
:1005D000FF920F931F93DF93CF9300D0CDB7DEB779
:1005E0008C01198262E00E949A0044E060E0B2E06F
:1005F000EB2EABE0FA2EB6E1ACE278E55FEFF80166
:1006000083819481FC0180818A83F801858188231C
:10061000B1F31582415088B388BB809162008E256A
:10062000809362002181328190E0F9018181898388
:1006300089818F3F09F061609F5F9830B1F791E049
:1006400020E030E0F801C180D280F6019583F80106
:10065000C180D280F6018581898389818913626096
:10066000990F2F5F3F4F2830310561F791E020E06F
:1006700030E0F801C180D280F601908380818983C7
:10068000898189136460990F2F5F3F4F28303105AE
:1006900081F7F601F082F80181819281FC01B48337
:1006A000F80181819281FC01A583F8018181928109
:1006B000FC017783F80181819281FC015087F80168
:1006C00021813281F90180818B3009F06860F90164
:1006D0008481863109F06860F9011482F801218172
:1006E0003281F90185818C3209F06860F901158247
:1006F000F80121813281F90180858F3F09F068601E
:10070000F9011086442309F07ACF662311F480E0C2
:1007100004C0C8010E94B90181E00F900F90CF91F1
:10072000DF911F910F91FF90EF90DF90CF90089590
:100730001F920F920FB60F9211248F9381E0809336
:1007400029018F910F900FBE0F901F90189580E098
:1007500090E7909326018093250180E090E39093A9
:1007600028018093270181E080932A0110922B01B8
:10077000109229010895789484E291E00E94A900E2
:10078000FBCFEE0FFF1F0590F491E02D0994F89434
:02079000FFCF99
:100792002A0100000101EC0000000201E502000054
:1007A20003025D0200000403DB01000005044C01AA
:0407B2000000050539
:00000001FF
